:100000000C9434000C946D010C9451000C9451002C
:100010000C9451000C9451000C9451000C9451001C
:100020000C9451000C9451000C9451000C9451000C
:100030000C9451000C9451000C9451000C945100FC
:100040000C9451000C9451000C9451000C945100EC
:100050000C9451000C9451000C9451000C945100DC
:100060000C9451000C94510011241FBECFEFD8E026
:10007000DEBFCDBF11E0A0E0B1E0E4EFF8E002C0E8
:1000800005900D92A031B107D9F721E0A0E1B1E0D0
:1000900001C01D92A832B207E1F70E9431010C9411
:1000A00078040C94000080FD04C095B19F7E95B942
:1000B00003C095B1906195B981FD04C095B19F7D54
:1000C00095B903C095B1906295B982FD04C095B110
:1000D0009F7B95B903C095B1906495B983FD04C029
:1000E00085B18F7785B903C085B1806885B985B141
:1000F0008D7F85B985B1826085B985B18D7F85B9E0
:1001000087E592E00197F1F700C000000895CF93D2
:10011000C82F662319F0613029F007C085B18E7FA2
:1001200085B903C085B1816085B98C2F82958F70A8
:100130000E9453008C2F8F700E945300CF9108951E
:1001400061E00E948700089560E00E9487000895A2
:1001500084B1836F84B985B18C7085B98FE295E7DE
:100160000197F1F700C0000083E00E94530087E090
:1001700090E20197F1F700C0000083E00E94530075
:1001800087EC90E00197F1F700C0000083E00E9447
:10019000530082E00E94530088E20E94A40092E68D
:1001A0009A95F1F700C087E0809325018FE00E94C7
:1001B000A40082E68A95F1F700C081E00E94A400C5
:1001C0008FE99FE00197F1F700C000000895CF93F9
:1001D000DF93EC0103C00E94A00021968881811169
:1001E000FACFDF91CF910895E82FF0E0E150FF4F73
:1001F0008081860F815080680E94A4000895CF936B
:10020000DF93CDB7DEB79E012B5F3F4FF9014191E0
:1002100051919F0165E170E080E191E00E948401CD
:1002200080E191E00E94E700DF91CF9108958091F5
:1002300025018E7F8093250188600E94A40082E6BC
:100240008A95F1F700C00895809125018D7F8093F4
:10025000250188600E94A40082E68A95F1F700C01B
:1002600008950E94A8000E9424010E941701E9E657
:10027000F0E08081836080838DB381608DBB789452
:100280002FEF80E792E0215080409040E1F700C0DE
:10029000000061E081E00E94F4002091260130918D
:1002A0002701C901880F991F220F331F220F331F07
:1002B000220F331F820F931F9F938F9384E091E04F
:1002C0009F938F930E94FF001092270110922601A6
:1002D0000F900F900F900F90D3CF1F920F920FB6E9
:1002E0000F9211248F939F93809126019091270163
:1002F000019690932701809326019F918F910F90F3
:100300000FBE0F901F901895AEE0B0E0EAE8F1E064
:100310000C944F048C01FA0186E08C831A830983C4
:1003200077FF02C060E070E8CB0101979E838D8368
:10033000A901BF01CE0101960E94B0014D815E81ED
:1003400057FD0AC02F813885421753070CF49A01D4
:10035000F801E20FF31F10822E96E4E00C946B0478
:10036000ABE0B0E0E6EBF1E00C9441046C017B0102
:100370008A01FC0117821682838181FFCCC1CE01E4
:1003800001963C01F6019381F70193FD859193FF5E
:1003900081917F01882309F4BAC1853239F493FD34
:1003A000859193FF81917F01853229F4B60190E018
:1003B0000E94A703E7CF912C212C312CFFE1F315EC
:1003C000D8F08B3279F038F4803279F08332A1F4AE
:1003D000232D20611DC08D3261F0803369F4232DFF
:1003E000216016C0832D8260382EE32DE4603E2EFE
:1003F0002AC0F32DF8601DC037FC2DC020ED280F5A
:100400002A3040F08E32B9F436FC81C1232D2064AD
:10041000322E19C036FE06C08AE0989E200D1124A7
:10042000922E11C0EAE02E9E200D1124222EF32DD3
:10043000F0623F2E08C08C3621F4832D8068382E60
:1004400002C0883641F4F70193FD859193FF8191B5
:100450007F018111B3CF982F9F7D9554933028F45D
:100460000C5F1F4F9FE399830DC0833631F08337B4
:1004700071F0833509F059C021C0F801808189836A
:100480000E5F1F4F88248394912C530113C02801C1
:10049000F2E04F0E511CF801A080B18036FE03C07F
:1004A000692D70E002C06FEF7FEFC5010E949C03D1
:1004B0004C018201F32DFF773F2E16C0280122E068
:1004C000420E511CF801A080B18036FE03C0692D98
:1004D00070E002C06FEF7FEFC5010E9491034C01F5
:1004E000F32DF0683F2E820133FC1BC0822D90E07B
:1004F00088169906B0F4B60180E290E00E94A70346
:100500002A94F4CFF50137FC859137FE81915F0184
:10051000B60190E00E94A70321102A9421E0821ADC
:1005200091088114910471F7E8C0843611F089367E
:1005300041F5F80137FE07C06081718182819381A6
:100540000C5F1F4F08C060817181072E000C880B63
:10055000990B0E5F1F4FF32DFF763F2E97FF09C0BB
:1005600090958095709561957F4F8F4F9F4FF06864
:100570003F2E2AE030E0A3010E94E303882E861874
:1005800045C0853731F4232D2F7EB22E2AE030E08E
:1005900025C0932D997FB92E8F36C1F018F4883578
:1005A00079F0B5C0803719F0883721F0B0C0E92F55
:1005B000E061BE2EB4FE0DC0FB2DF460BF2E09C05D
:1005C00034FE0AC0292F2660B22E06C028E030E093
:1005D00005C020E130E002C020E132E0F801B7FEC2
:1005E00007C060817181828193810C5F1F4F06C0BB
:1005F0006081718180E090E00E5F1F4FA3010E9437
:10060000E303882E8618FB2DFF773F2E36FE0DC0A4
:10061000232D2E7FA22E891458F434FE0BC032FCF9
:1006200009C0832D8E7EA82E05C0B82CA32C03C034
:10063000B82C01C0B92CA4FE0FC0FE01E80DF11DBD
:100640008081803321F49A2D997EA92E09C0A2FEC3
:1006500006C0B394B39404C08A2D867809F0B3948D
:10066000A3FC11C0A0FE06C0B21488F4280C922C82
:100670009B180EC0B21460F4B60180E290E00E94B4
:10068000A703B394F7CFB21418F42B1802C0982C18
:10069000212CA4FE10C0B60180E390E00E94A703C5
:1006A000A2FE17C0A1FC03C088E790E002C088E565
:1006B00090E0B6010CC08A2D867859F0A1FE02C0E8
:1006C0008BE201C080E2A7FC8DE2B60190E00E94BF
:1006D000A703891438F4B60180E390E00E94A703D1
:1006E0009A94F7CF8A94F301E80DF11D8081B60149
:1006F00090E00E94A7038110F5CF222009F442CE9A
:10070000B60180E290E00E94A7032A94F6CFF6019A
:100710008681978102C08FEF9FEF2B96E2E10C94C8
:100720005D04FC010590615070400110D8F7809580
:1007300090958E0F9F1F0895FC01615070400190AD
:100740000110D8F7809590958E0F9F1F08950F93F5
:100750001F93CF93DF93FB01238121FD03C08FEF14
:100760009FEF2CC022FF16C046815781248135811E
:100770004217530744F4A081B1819D012F5F3F4F81
:10078000318320838C93268137812F5F3F4F3783BE
:10079000268314C08B01EC01FB010084F185E02D60
:1007A0000995892BE1F6D80116968D919C911797A2
:1007B000019617969C938E931697CE01DF91CF9159
:1007C0001F910F910895FA01AA27283051F1203185
:1007D00081F1E8946F936E7F6E5F7F4F8F4F9F4FD5
:1007E000AF4FB1E03ED0B4E03CD0670F781F891F17
:1007F0009A1FA11D680F791F8A1F911DA11D6A0FE5
:10080000711D811D911DA11D20D009F468943F9197
:100810002AE0269F11243019305D3193DEF6CF0196
:100820000895462F4770405D4193B3E00FD0C9F75C
:10083000F6CF462F4F70405D4A3318F0495D31FDC9
:100840004052419302D0A9F7EACFB4E0A69597951C
:10085000879577956795BA95C9F7009761057105F2
:1008600008959B01AC010A2E06945795479537953C
:100870002795BA95C9F7620F731F841F951FA01D96
:1008800008952F923F924F925F926F927F928F9234
:100890009F92AF92BF92CF92DF92EF92FF920F930F
:1008A0001F93CF93DF93CDB7DEB7CA1BDB0B0FB619
:1008B000F894DEBF0FBECDBF09942A8839884888D6
:1008C0005F846E847D848C849B84AA84B984C8846C
:1008D000DF80EE80FD800C811B81AA81B981CE0F63
:1008E000D11D0FB6F894DEBF0FBECDBFED01089548
:0408F000F894FFCFAA
:1008F40000401454465245513A20253130640000DA
:00000001FF
