S01B000053656E736F7265734469676974616C657330312E73726563C0
S11300000C9434000C9451000C9451000C94510045
S11300100C9451000C9451000C9451000C94510018
S11300200C9451000C9451000C9451000C94510008
S11300300C9451000C9451000C9451000C945100F8
S11300400C9451000C9451000C9451000C945100E8
S11300500C9451000C9451000C9451000C945100D8
S11300600C9451000C94510011241FBECFEFD8E022
S1130070DEBFCDBF11E0A0E0B1E0E8E2FAE002C0EB
S113008005900D92A431B107D9F721E0A4E1B1E0C4
S113009001C01D92AD32B207E1F70E946D010C94CC
S11300A012050C9400008AB184608AB98AB1877FF2
S11300B08AB98BB18B7F8BB908958BB184608BB96E
S11300C085E38A95F1F700008BB18B7F8BB94B9B4D
S11300D0FECF80E090E007C00196E7EEF0E03197B4
S11300E0F1F700C000004B99F7CF089580FD04C0DC
S11300F09BB19F7E9BB903C09BB190619BB981FD6D
S113010004C09BB19F7D9BB903C09BB190629BB916
S113011082FD04C09BB19F7B9BB903C09BB19064DB
S11301209BB983FD04C08BB18F778BB903C08BB1AE
S113013080688BB98BB18D7F8BB98BB182608BB9A1
S11301408BB18D7F8BB98FEA94E00197F1F700C0F2
S113015000000895CF93C82F662319F0613029F069
S113016007C08BB18E7F8BB903C08BB181608BB913
S11301708C2F82958F700E9476008C2F8F700E9436
S11301807600CF91089561E00E94AA00089560E08E
S11301900E94AA0008958AB1836F8AB98BB18C70CA
S11301A08BB98FE59AEE0197F1F700C0000083E068
S11301B00E9476008FE090E40197F1F700C0000000
S11301C083E00E9476008FE891E00197F1F700C088
S11301D0000083E00E94760082E00E94760088E2BC
S11301E00E94C70095EC9A95F1F7000087E0809390
S11301F029018FE00E94C70085EC8A95F1F7000081
S113020081E00E94C7008FE39FE10197F1F700C0EE
S113021000000895CF93DF93EC0103C00E94C30054
S1130220219688818111FACFDF91CF910895E82F2B
S1130230F0E0E150FF4F8081860F815080680E947A
S1130240C7000895CF93DF93CDB7DEB79E012B5F30
S11302503F4FF901419151919F0165E170E084E1C3
S113026091E00E941E0284E191E00E940A01DF9164
S1130270CF910895809129018E7F80932901886010
S11302800E94C70085EC8A95F1F7000008958091DB
S113029029018D7F8093290188600E94C70085EC25
S11302A08A95F1F70000089587B18F6087B988B106
S11302B0807F88B9089588B1826088B988B1827FC7
S11302C088B9089588B1807F88B9089588B1866017
S11302D088B988B1867F88B908950E94CB000E94AE
S11302E047010E943A010E94530080E00E94E70106
S11302F00E9454010E945D0090932B0180932A0177
S113030061E081E00E94170180912B018F9380911D
S11303102A018F9384E091E09F938F930E9422019E
S113032080912A0190912B010F900F900F900F90C4
S11303300B97BCF40E9462012FEF89E698E12150EB
S113034080409040E1F700C000000E945B012FEF65
S113035083ED90E3215080409040E1F700C000001D
S113036002C00E9466012FEF81EE94E0215080408C
S11303709040E1F700C00000BDCF843F21E0920728
S113038038F08D322CE4920728F08CE29CE402C011
S113039084EF91E0A0E0B0E0880F991FAA1FBB1F73
S11303A0009721E0A207B10520F08FEF9FEFA0E0B6
S11303B0B0E020912C01211105C090938900809315
S11303C08800089590938B0080938A000895809309
S11303D02C0181110DC084B1826084B9E0E8F0E0A1
S11303E080818F738068808380818F7C80830CC040
S11303F084B1846084B9E0E8F0E080818F7C80621D
S1130400808380818F738083E0E8F0E080818C7F3B
S113041082608083E1E8F0E080818861808380E409
S11304209CE990938700809386008081887F826016
S113043080838CED95E00E94BD010895AEE0B0E0AC
S1130440E4E2F2E00C94E9048C01FA0186E08C8386
S11304501A83098377FF02C060E070E8CB0101973B
S11304609E838D83A901BF01CE0101960E944A0299
S11304704D815E8157FD0AC02F813885421753078D
S11304800CF49A01F801E20FF31F10822E96E4E0B7
S11304900C940505ABE0B0E0E0E5F2E00C94DB047D
S11304A06C017B018A01FC0117821682838181FF22
S11304B0CCC1CE0101963C01F6019381F70193FD75
S11304C0859193FF81917F01882309F4BAC1853214
S11304D039F493FD859193FF81917F01853229F44D
S11304E0B60190E00E944104E7CF912C212C312CDD
S11304F0FFE1F315D8F08B3279F038F4803279F0DB
S11305008332A1F4232D20611DC08D3261F080332C
S113051069F4232D216016C0832D8260382EE32DCB
S1130520E4603E2E2AC0F32DF8601DC037FC2DC0B8
S113053020ED280F2A3040F08E32B9F436FC81C108
S1130540232D2064322E19C036FE06C08AE0989E00
S1130550200D1124922E11C0EAE02E9E200D1124AC
S1130560222EF32DF0623F2E08C08C3621F4832D09
S11305708068382E02C0883641F4F70193FD8591D6
S113058093FF81917F018111B3CF982F9F7D955463
S1130590933028F40C5F1F4F9FE399830DC083367B
S11305A031F0833771F0833509F059C021C0F80167
S11305B0808189830E5F1F4F88248394912C53017B
S11305C013C02801F2E04F0E511CF801A080B18045
S11305D036FE03C0692D70E002C06FEF7FEFC501E6
S11305E00E9436044C018201F32DFF773F2E16C082
S11305F0280122E0420E511CF801A080B18036FE91
S113060003C0692D70E002C06FEF7FEFC5010E9447
S11306102B044C01F32DF0683F2E820133FC1BC0E8
S1130620822D90E088169906B0F4B60180E290E03D
S11306300E9441042A94F4CFF50137FC859137FEDA
S113064081915F01B60190E00E94410421102A9437
S113065021E0821A91088114910471F7E8C084366C
S113066011F0893641F5F80137FE07C060817181C8
S1130670828193810C5F1F4F08C060817181072EB6
S1130680000C880B990B0E5F1F4FF32DFF763F2E46
S113069097FF09C090958095709561957F4F8F4F16
S11306A09F4FF0683F2E2AE030E0A3010E947D04B2
S11306B0882E861845C0853731F4232D2F7EB22E1F
S11306C02AE030E025C0932D997FB92E8F36C1F0F2
S11306D018F4883579F0B5C0803719F0883721F0DF
S11306E0B0C0E92FE061BE2EB4FE0DC0FB2DF46056
S11306F0BF2E09C034FE0AC0292F2660B22E06C0C0
S113070028E030E005C020E130E002C020E132E022
S1130710F801B7FE07C060817181828193810C5F0B
S11307201F4F06C06081718180E090E00E5F1F4F13
S1130730A3010E947D04882E8618FB2DFF773F2E8F
S113074036FE0DC0232D2E7FA22E891458F434FEBC
S11307500BC032FC09C0832D8E7EA82E05C0B82C98
S1130760A32C03C0B82C01C0B92CA4FE0FC0FE01F9
S1130770E80DF11D8081803321F49A2D997EA92EF4
S113078009C0A2FE06C0B394B39404C08A2D86782F
S113079009F0B394A3FC11C0A0FE06C0B21488F4FF
S11307A0280C922C9B180EC0B21460F4B60180E29F
S11307B090E00E944104B394F7CFB21418F42B18BC
S11307C002C0982C212CA4FE10C0B60180E390E056
S11307D00E944104A2FE17C0A1FC03C088E790E078
S11307E002C088E590E0B6010CC08A2D867859F0E5
S11307F0A1FE02C08BE201C080E2A7FC8DE2B6013B
S113080090E00E944104891438F4B60180E390E03A
S11308100E9441049A94F7CF8A94F301E80DF11DE4
S11308208081B60190E00E9441048110F5CF22201E
S113083009F442CEB60180E290E00E9441042A9479
S1130840F6CFF6018681978102C08FEF9FEF2B963A
S1130850E2E10C94F704FC01059061507040011032
S1130860D8F7809590958E0F9F1F0895FC016150D5
S1130870704001900110D8F7809590958E0F9F1FBE
S113088008950F931F93CF93DF93FB01238121FDE1
S113089003C08FEF9FEF2CC022FF16C04681578103
S11308A0248135814217530744F4A081B1819D010D
S11308B02F5F3F4F318320838C93268137812F5FB5
S11308C03F4F3783268314C08B01EC01FB01008466
S11308D0F185E02D0995892BE1F6D80116968D91C5
S11308E09C911797019617969C938E931697CE0119
S11308F0DF91CF911F910F910895FA01AA27283013
S113090051F1203181F1E8946F936E7F6E5F7F4FD8
S11309108F4F9F4FAF4FB1E03ED0B4E03CD0670F54
S1130920781F891F9A1FA11D680F791F8A1F911DA7
S1130930A11D6A0F711D811D911DA11D20D009F4F7
S113094068943F912AE0269F11243019305D319339
S1130950DEF6CF010895462F4770405D4193B3E022
S11309600FD0C9F7F6CF462F4F70405D4A3318F0C9
S1130970495D31FD4052419302D0A9F7EACFB4E07A
S1130980A6959795879577956795BA95C9F7009732
S11309906105710508959B01AC010A2E06945795D3
S11309A0479537952795BA95C9F7620F731F841F2A
S11309B0951FA01D08952F923F924F925F926F92C0
S11309C07F928F929F92AF92BF92CF92DF92EF92DB
S11309D0FF920F931F93CF93DF93CDB7DEB7CA1B5C
S11309E0DB0B0FB6F894DEBF0FBECDBF09942A8887
S11309F0398848885F846E847D848C849B84AA842F
S1130A00B984C884DF80EE80FD800C811B81AA81BB
S1130A10B981CE0FD11D0FB6F894DEBF0FBECDBF86
S10B0A20ED010895F894FFCFE5
S1130A280040145464697374616E6369613A2025E3
S1070A3833642000FF
S9030000FC
