S0170000496E74657272757063696F6E4578742E73726563DA
S11300000C9434000C9472000C9484000C944600FC
S11300100C9496000C9446000C9446000C944600F4
S11300200C9446000C9446000C9446000C94460034
S11300300C9446000C9446000C9446000C94460024
S11300400C9446000C9446000C9446000C94460014
S11300500C9446000C9446000C9446000C94460004
S11300600C9446000C94460011241FBECFEFD8E038
S1130070DEBFCDBF21E0A0E0B1E001C01D92A230FF
S1130080B207E1F70E9448000C94B4000C940000FD
S113009086B18170809301018AB1837F8AB984B16A
S11300A0876084B9E9E6F0E08081836080838081A1
S11300B08C6080838DB383608DBBE8E6F0E0808143
S11300C082608083ECE6F0E08081836080837894B2
S11300D02FEF87EA91E6215080409040E1F700C07D
S11300E00000F6CF1F920F920FB60F9211248F9338
S11300F09F9395B181E0892785B99F918F910F9046
S11301000FBE0F901F9018951F920F920FB60F926B
S113011011248F939F9395B182E0892785B99F918C
S11301208F910F900FBE0F901F9018951F920F92F2
S11301300FB60F9211248F939F9386B18170809391
S1130140000190910101891741F095B184E089275C
S113015085B980910001809301019F918F910F9047
S10F01600FBE0F901F901895F894FFCF6D
S9030000FC
