:100000000C9434000C947D000C94A2000C945100CC
:100010000C94B4000C9451000C9451000C945100B9
:100020000C9451000C9451000C9451000C9451000C
:100030000C9451000C9451000C9451000C945100FC
:100040000C9451000C9451000C9451000C945100EC
:100050000C9451000C9451000C9451000C945100DC
:100060000C9451000C94510011241FBECFEFD8E026
:10007000DEBFCDBF11E0A0E0B1E0E8EAF1E002C0F0
:1000800005900D92A030B107D9F721E0A0E0B1E0D2
:1000900001C01D92A630B207E1F70E9453000C94F4
:1000A000D2000C94000086B18170809305018AB162
:1000B000837F8AB984B1876084B9E9E6F0E0808102
:1000C0008360808380818C6080838DB383608DBBEF
:1000D000E8E6F0E0808182608083ECE6F0E08081F9
:1000E0008360808378942FEF83ED90E321508040EC
:1000F0009040E1F700C00000F6CF1F920F920FB6BC
:100100000F9211248F939F93AF93BF93809101011E
:1001100090910201A0910301B09104010196A11DEB
:10012000B11D8093010190930201A0930301B0934C
:100130000401BF91AF919F918F910F900FBE0F90CF
:100140001F9018951F920F920FB60F9211248F9344
:100150009F9395B182E0892785B99F918F910F90E8
:100160000FBE0F901F9018951F920F920FB60F920F
:1001700011248F939F9386B1817080930001909199
:100180000501891741F095B184E0892785B98091EF
:100190000001809305019F918F910F900FBE0F90EA
:0801A0001F901895F894FFCFA1
:00000001FF
