:100000000C9434000C9451000C9451000C94510049
:100010000C9451000C9451000C9451000C9451001C
:100020000C9451000C9451000C9451000C9451000C
:100030000C9451000C9451000C9451000C945100FC
:100040000C9451000C9451000C9451000C945100EC
:100050000C9451000C9451000C9451000C945100DC
:100060000C9451000C94510011241FBECFEFD8E026
:10007000DEBFCDBF11E0A0E0B1E0E8EDF2E002C0EC
:1000800005900D92A832B107D9F721E0A8E2B1E0BE
:1000900001C01D92A932B207E1F70E943E010C9403
:1000A0006A010C94000080FD04C09BB19F7E9BB947
:1000B00003C09BB190619BB981FD04C09BB19F7D42
:1000C0009BB903C09BB190629BB982FD04C09BB1F8
:1000D0009F7B9BB903C09BB190649BB983FD04C017
:1000E0008BB18F778BB903C08BB180688BB98BB123
:1000F000877F8BB98BB188608BB98BB1877F8BB9C8
:100100008FEA94E00197F1F700C000000895CF93C3
:10011000C82F662319F0613029F007C08BB18B7F9F
:100120008BB903C08BB184608BB98C2F82958F7093
:100130000E9453008C2F8F700E945300CF9108951E
:1001400061E00E948700089560E00E9487000895A2
:100150008AB18C6F8AB98BB183708BB98FE59AEEB7
:100160000197F1F700C0000083E00E9453008FE088
:1001700090E40197F1F700C0000083E00E94530073
:100180008FE891E00197F1F700C0000083E00E9442
:10019000530082E00E94530088E20E94A40095EC84
:1001A0009A95F1F7000087E0809328018FE00E9484
:1001B000A40085EC8A95F1F7000081E00E94A4007C
:1001C0008FE39FE10197F1F700C000000895CF93FE
:1001D000DF93EC0103C00E94A00021968881811169
:1001E000FACFDF91CF910895E82FF0E0E15FFE4F65
:1001F0008081860F815080680E94A40008958091BC
:1002000028018E7F8093280188600E94A40085ECDD
:100210008A95F1F700000895809128018D7F8093E1
:10022000280188600E94A40085EC8A95F1F70000FF
:1002300008950F931F93CF938B01877090E0880FE1
:10024000991F880F991F880F991F80640E94A4002E
:10025000C0E007C0F801EC0FF11D80810E94A000F2
:10026000CF5FC830B8F380E80E94A40085EC8A957F
:10027000F1F70000CF911F910F9108950E94A800FF
:100280000E94FF000E940C0168E071E081E00E9482
:10029000190160E071E082E00E94190165E083E0ED
:1002A0000E94F40081E00E94A00082E00E94A00071
:1002B00061E081E00E94F40084E191E00E94E700A7
:1002C0002FEF89E698E1215080409040E1F700C08F
:0802D0000000EECFF894FFCF0F
:1002D800040E1F1F0E041F00040E1504040404005E
:1002E8000040145441726C696E206C612073616324
:0802F8006120746F64610000D5
:00000001FF
